:1000000008308A00782800000A108A100A11820736
:1000100028340F34013406348C24CE24C3244127E1
:10002000C4272E172E000C2AC526501DA0126610BC
:10003000A53143050000D22246103A102533A01204
:10004000E321000160308400831300080319352880
:100050000630F800F701F70B2B28F80B2A287B3025
:10006000F700F70B3128800B2828080067183A287A
:1000700008123B280816831608128312E718422834
:1000800088124328881683168812831267194A2813
:1000900008134B280817831608138312E7195228F0
:1000A000881353288817831688138910831289149C
:1000B0008316891083128910080083160911831290
:1000C0000911E408031D662809116728091583161C
:1000D0000911A630F700F70B6B2800008910831276
:1000E0008910650EE6000F30E6056608E700362049
:1000F00065080F39E600E70036200800831608126D
:10010000831208128316881283128812831608132A
:100110008312081383168813831288138316091118
:100120008312091183168910831289100F30E000A1
:1001300022200130D2005208033C031CA7280330C0
:10014000E70036200530E0002220D20A9B2802304A
:10015000E7003620D2015208033C031CB82852089D
:100160000420D300E4015308E5005D20D20AAB2847
:100170008A150A12DC285F080C3A0319C928063AC6
:100180000319D128073A0319D128053A0319E7289A
:10019000EC28E4010130E5005D200230E00022207F
:1001A000F1280130E0000230E100610BD828DB28A3
:1001B0004030E200DC28E20101306002E207620820
:1001C0008038E300E4016308E5005D20F128E401E4
:1001D0001030E5005D20F1280130E4005F08E50003
:1001E0005D2008000B08D2008B13831603178C17B1
:1001F0000C140000000083120313D21B8B1703178B
:100200000C087F39031946290313D20003170D0880
:100210000313D30003170F080313D4005208DF00A1
:10022000BB20530803178D000313540803178F00D6
:1002300003130B08D5008B13831603178C170C14AC
:100240000000000083120313D51B8B1703170C0D3E
:100250000E0D7F39031946290313D20003170D0829
:100260000313D30003170F080313D4005208DF0051
:10027000BB20530803178D000313540803178F0086
:100280008D0A03198F0A0313F228031703138A1523
:100290000A12EE280830F8001F08C73978049F00BA
:1002A0005330F700F70B52291F151F1955298316D4
:1002B0001E088312A8001E08A9002908F9002808B2
:1002C000F800F90CF80CF90CF80CF90C780895000A
:1002D000F90C790C3039F7001708CF3977049700FB
:1002E0005330F700F70B72298A150A12FA288E305C
:1002F000F7005908F8005808F900FA01F808031D3A
:100300008B297908F800F9010830F702F808031D75
:100310008B29F70193290310F81B9229F90DF80D89
:10032000F7038B29F81308005F080319042AE70074
:1003300063080319042AE7070318A5297F30E70299
:10034000031C042A0319042AA9298130E70703188A
:10035000042A6708F700F801F901FA016008EB00C8
:10036000EB176108EA006208E9001830E700E801CD
:10037000691CD2296608FA07031CC429F90A031D5F
:10038000C429F80A0319E8176508F907031CCB29E3
:10039000F80A0319E8176408E100E1176108F80793
:1003A0000318E817E80DF80CF90CFA0CEB0CEA0C42
:1003B000E90C0310E70BB7290130F7070318042AEB
:1003C000F81BE929EB0DFA0DF90DF80DF7030319E8
:1003D000042AEB1FFA29FA0A031DFA29F90A031D58
:1003E000FA29F80A031DFA29F80CF90CFA0CF70A95
:1003F0000319042A6008E8006408E806E81F022AD6
:10040000F817082AF813082AF701F801F901FA0188
:10041000080080308318DF06E401E5015B08E30093
:100420005F08E3065A080319F92AE200F7005E089C
:100430000319022BE20203199E2A031C5C2A5F089F
:10044000E800E8176008E7006108E600E50103102E
:10045000E80CE70CE60CE50CE20B262AE31F332A36
:100460006414162B6410621064165D3084008313CC
:100470002B2B6412E31B462A621C512AE80CE70C62
:10048000E60CE50CF70A0319112B512AE81B542A34
:100490000310E50DE60DE70DE80DF7030319112B29
:1004A000462A6417BE2A64135B08E300E31F5A2A36
:1004B000E8170A2BE8130A2B5E08E200F7005A0837
:1004C000E2025B08E800E8175C08E7005D08E60068
:1004D000E5010310E80CE70CE60CE50CE20B682ADA
:1004E000E31F752AE414162BE4106210E416613041
:1004F000840083132B2BE412E31B882A621C932AAB
:10050000E80CE70CE60CE50CF70A0319112B932A0B
:10051000E81B962A0310E50DE60DE70DE80DF7033D
:100520000319112B882AE417BE2AE4135F08E3009D
:10053000E31F9C2AE8170A2BE8130A2B5F08E80040
:10054000E8176008E7006108E600E31FAB2AE8133C
:100550006415162B6411E50162105D30840083136D
:100560002B2BE31BD42A5B08E300621CBE2AE80C99
:10057000E70CE60CE50CF70A0319112BE51FCF2A4F
:10058000E60A031DCF2AE70A031DCF2AE80A031D46
:10059000CF2AE80CE70CE60CF70A0319112B641BB1
:1005A000532AE41B952AF32A8030E806E81FDC2A48
:1005B000162B5F08E300E92A5B08E300E808031D47
:1005C000E92AE708031DE92AE608031DE92AF701DD
:1005D0000A2BE81BF32A0310E50DE60DE70DE80DE5
:1005E000F70BE92A112BE31FF72AE8170A2BE81368
:1005F0000A2B5E08F7005F08E8006008E700610862
:10060000E6000A2B5A08F7005B08E8005C08E700E0
:100610005D08E6006808F8006708F9006608FA0057
:10062000492BF701F801F901FA01492BE501E60927
:10063000E709E809E509E50A031D242BE60A031D7D
:10064000242BE70A0319E80A6418322AE418742AEA
:100650006419AA2AD92A0008E607031C352BE70AE1
:10066000031D352BE80A0319621484030008E70709
:10067000031C3D2BE80A0319621484030008801F41
:10068000803AE80703186214641A392AE41A7B2AAC
:10069000B12A08000030F8001F08C73978049F000D
:1006A0005330F700F70B522B1F151F19552B1E083F
:1006B000FA0083161E088312D6001E08D700D90040
:1006C0005608D80077217A08E2007908E100780816
:1006D000E0007708DF005E30E6004B30E500483090
:1006E000E4007A30E30094217A08D9007908D80030
:1006F0007808D7007708D60083107A08DD007908DB
:10070000DC007808DB007708DA00E101E001203046
:10071000DF008330DE0009227A08D5007908D40092
:100720007808D3007708D2005208F7005308F80081
:100730005408F9005508FA008A150A12FD281830E5
:10074000F8001F08C73978049F005330F700F70BF3
:10075000A72B1F151F19AA2B1E08FA0083161E08A7
:100760008312D6001E08D700D9005608D80077217A
:100770007A08E2007908E1007808E0007708DF00F5
:100780003530E6005E30E5007A30E4007D30E3008D
:1007900094217A08D5007908D4007808D300770826
:1007A000D2005208F7005308F8005408F900550821
:1007B000FA008A150A1208295308DA005708DA06DF
:1007C000DA1FE72B03110310D31B03141A2C530851
:1007D000DA005608DB005208DB020319F52BDA1F9A
:1007E0001A2C0308013A83001A2C5708DB0053081F
:1007F000DB020319012CDA1F1A2C0308013A8300CB
:100800001A2C5808DB005408DB0203190D2CDA1FE0
:100810001A2C0308013A83001A2C5908DB005508EA
:10082000DB020319192CDA1F1A2C0308013A830082
:100830001A2C0310080083142308DD002208DC00B2
:100840002108DB002008DA002708E1002608E00084
:100850002508DF002408DE0009227A08B2007908A2
:10086000B1007808B0007708AF003208E200310824
:10087000E1003008E0002F08DF003608E600350808
:10088000E5003408E4003308E30094217A08C2004C
:100890007908C1007808C0007708BF003208E2007C
:1008A0003108E1003008E0002F08DF003A08E600D8
:1008B0003908E5003808E4003708E3009421831084
:1008C0004608DD004508DC004408DB004308DA0088
:1008D0007A08E1007908E0007808DF007708DE0098
:1008E00009227A08C6007908C5007808C40077088C
:1008F000C30083142E08DD002D08DC002C08DB006B
:100900002B08DA002708E1002608E0002508DF00B0
:100910002408DE0009227A08D5007908D400780876
:10092000D3007708D2007A08E2007908E10078085D
:10093000E0007708DF003E08E6003D08E5003C08DF
:10094000E4003B08E30094217A08CA007908C90052
:100950007808C8007708C7002708AE002608AD0051
:100960002508AC002408AB0083104208DD004108D4
:10097000DC004008DB003F08DA004A08E1004908D3
:10098000E0004808DF004708DE0009227A08D500A9
:100990007908D4007808D3007708D20083107A0849
:1009A000DD007908DC007808DB007708DA0046080B
:1009B000E1004508E0004408DF004308DE000922AA
:1009C0007A08CE007908CD007808CC007708CB00F3
:1009D0004E08D5004D08D4004C08D3004B08D20077
:1009E000D901D801D7017F30D600DC23031C142D98
:1009F000CE01CD01CC01CB01C601C501C401C301AB
:100A00004C08F9004B08F800F90CF80CF90CF80C3C
:100A1000F90C78089B00F90C790C3039F7001D08A7
:100A2000CF3977049D007A2DD501C030D4007F30B6
:100A3000D3008830D2004E08D9004D08D8004C08A9
:100A4000D7004B08D600DC23031C412DCE01C0305B
:100A5000CD007F30CC008830CB004C08F9004B082B
:100A6000F800F90CF80CF90CF80CF90C78089B005C
:100A7000F90C790C3039F7001D08CF3977049D0047
:100A80007A2D4E08D5004D08D4004C08D3004B08F1
:100A9000D2008E30F7005208F7025308F9005408CC
:100AA000F800F917F7080319602D0310F908031D62
:100AB0005C2DF8080319602DF90CF80CF70B552D77
:100AC000D31F672DF809F909F80A0319F90A7908FB
:100AD000D3007808D200D30CD20CD30CD20CD30C98
:100AE00052089B00D30C530C3039F7001D08CF3946
:100AF00077049D008A150A1213290B08D3008B1363
:100B0000831603178C170C140000000083120313C4
:100B1000D31B8B170318B42D03170C087F3903134D
:100B2000D30003170D080313D40003170F08031392
:100B3000D5005308DF00BB20540803178D000313B2
:100B4000550803178F0003130B08D6008B13831669
:100B500003178C170C140000000083120313D61B1C
:100B60008B17D20BB42DD32D03170C0D0E0D7F391F
:100B70000313D30003170D080313D40003170F0842
:100B80000313D5005308DF00BB20540803178D0062
:100B90000313550803178F008D0A03198F0A0310DA
:100BA0000313D20B7D2D08005F08B63CDF00FA016D
:100BB0006008E300E0170310E00CE10CE20CFA0C13
:100BC000F90CF80CF70CDF0BDB2DE31FF22DF70906
:100BD000F809F909FA09F70A0319F80A0319F90AD1
:100BE0000319FA0A08008318F82D6730840083136C
:100BF000F701F801F901FA01E701E801E901EA0169
:100C000066086504640463040319362E2030EB0083
:100C10000310DF0DE00DE10DE20DE70DE80DE90D2C
:100C2000EA0D66086A02031D1F2E65086902031D8E
:100C30001F2E64086802031D1F2E63086702031C31
:100C4000302E6308E7026408031C640FE80265089D
:100C5000031C650FE9026608031C660FEA02031411
:100C6000F70DF80DF90DFA0DEB0B082E6708800053
:100C7000840A68088000840A69088000840A6A0877
:100C8000800008000408D7005608D9000319612E17
:100C90005508E2005408E1005308E0005208DF0064
:100CA000E601E5012030E4008230E30094217A0877
:100CB000D5007908D4007808D3007708D200D90B82
:100CC000482E5508E2005408E1005308E00052089D
:100CD000DF00D4257A08D5007908D4007808D3003D
:100CE0007708D200D51F812ED703D716D209D30992
:100CF000D409D509D20A0319D30A0319D40A03194E
:100D0000D50A3B30DE009A30DD00CA30DC00DB0162
:100D10000A30D90056080319D70A831452308400C8
:100D200083135508E2005408E1005308E00052081C
:100D3000DF005E08E6005D08E5005C08E4005B0893
:100D4000E300F3257808F708031DB92E560A590267
:100D50000319B92E57080319BB2E0F39590203196D
:100D6000B32E0318EB2ED71BEB2E571BBB2E2030B8
:100D7000E72E2030D705D71EC92ED7125608031DDF
:100D8000D7037708D7002D30DF00BB205708F700C6
:100D9000D70156085902031DD72E7708D7002E30E9
:100DA000DF00BB205708F7002030D7050030303077
:100DB000D71EE72ED7125608031DD7037708D70092
:100DC0002D30DF00BB205708F700D7013030F70780
:100DD0007708DF00BB2083105E08E2005D08E100B9
:100DE0005C08E0005B08DF00E601E501E4010A3091
:100DF000E300F3257A08DE007908DD007808DC00DE
:100E00007708DB00D90B8D2E08000408D7005608A0
:100E1000D9000319242F5508E2005408E1005308B3
:100E2000E0005208DF00E601E5012030E4008230F6
:100E3000E30094217A08D5007908D4007808D3001B
:100E40007708D200D90B0B2F5508E2005408E100B7
:100E50005308E0005208DF00D4257A08D50079084D
:100E6000D4007808D3007708D200D51F442FD703C9
:100E7000D716D209D309D409D509D20A0319D30A3E
:100E80000319D40A0319D50A3B30DE009A30DD007D
:100E9000CA30DC00DB010A30D90056080319D70A32
:100EA00083145230840083135508E2005408E10093
:100EB0005308E0005208DF005E08E6005D08E50028
:100EC0005C08E4005B08E300F3257808F708031DDD
:100ED0007C2F560A590203197C2F570803197E2FBD
:100EE0000F3959020319762F0318B22FD71BB22FCF
:100EF000571B7E2F2030AD2F2030D705D71E8D2FCA
:100F0000D7125608031DD7037708D7002D300C1EC3
:100F1000872F99005708F700D70156085902031D7B
:100F20009C2F7708D7002E300C1E942F990057085D
:100F3000F7002030D70500303030D71EAD2FD71244
:100F40005608031DD7037708D7002D300C1EA62F97
:100F500099005708F700D7013030F70777080C1EC3
:100F6000AF2F990083105E08E2005D08E1005C0885
:100F7000E0005B08DF00E601E501E4010A30E30080
:100F8000F3257A08DE007908DD007808DC007708B0
:080F9000DB00D90B502F080013
:10100000DA010408D9005A10831B5A14D31F102880
:10101000D917591ED90AD209D309D20A0319D30AFA
:10102000530EF038D500D507E23ED600323ED80048
:1010300053080F39D607D607D807E93ED700D70798
:10104000D707520E0F39D707D807D70DD80DD809B3
:10105000D80D52080F39D807D50D0730D4000A3003
:10106000D807D703031C3028D707D603031C34281E
:10107000D607D503031C3828D507D403031C3C2806
:1010800054308400831307305905591384035905DC
:10109000031D5128591A840A591A51282030F70083
:1010A0006E28840758300402031959170008F70006
:1010B000031D6228591B6228591A7228D9196228FF
:1010C00020306D28D91F6A282D30F700840359136A
:1010D000D9136E28D91559123030F70777080C1E2E
:1010E0006F289900840A591F52288A150A12AD29BF
:1010F00003081F398300813083169900A6309800B9
:10110000903083129800DF30AA00AE01AD01AC012F
:10111000AB01B601B5012030B4008230B300CD3050
:10112000BA00CC30B9004C30B8007C30B7000A307F
:10113000BE00D730BD002330BC007730BB00C601F5
:10114000C501C401C301FF30CF00D101D001831616
:101150001F149F141F159F1107309C0083131F102D
:101160009F101F119F111F1783121F139F138316A8
:101170009F1783121F1483160108C739083881008E
:10118000831290010030F80006389200FF30831679
:10119000920083124F114F088316870083120711A4
:1011A0000C309700CF104F088316870083128710EA
:1011B0000C309D008A117E288A150230D200FA3048
:1011C000E0008A1122208A15D20BDF280C30031789
:1011D0008D0000308F008A110313F2288A15063023
:1011E000D200FA30E0008A1122208A15D20BF128B1
:1011F0008A114A298A158A114A2B8A157A08A3006E
:101200007908A2007808A1007708A0008A119F2B16
:101210008A157A08A7007908A6007808A50077083B
:10122000A4008A111B2C8A15133003178D0000307F
:101230008F00031007300313D2008A117D258A1511
:10124000893084002708D5002608D4002508D3005B
:101250002408D2000230D6008A1142268A15203096
:10126000DF008A11BB208A152A08DF008A11BB2003
:101270008A154330DF008A11BB208A150A30DF004F
:101280008A11BB208A151B3003178D0000308F0098
:10129000031006300313D2008A117D258A15893088
:1012A00084002308D5002208D4002108D300200898
:1012B000D2000230D6008A1142268A152030DF0083
:1012C0008A11BB208A152A08DF008A11BB208A15E3
:1012D0004330DF008A11BB208A158930840023083F
:1012E000D5002208D4002108D3002008D200023003
:1012F000D6008A1105278A1520300C1E7D299900F9
:10130000893084002708D5002608D4002508D3009A
:101310002408D2000230D6008A1105278A15203011
:101320000C1E90299900893084003208D5003108BC
:10133000D4003008D3002F08D2000230D6008A1122
:1013400005278A1520300C1EA3299900103084002F
:101350002908D3002808D20000280A300C1EAE2924
:1013600099000430D200FA30E0008A1122208A1558
:08137000D20BB329F828630039
:02400E00422F3F
:00000001FF
;PIC16F877A
;CRC=EE3A  CREATED="09-dez-21 11:07"
